{
  "_format": "hh-sol-artifact-1",
  "contractName": "RMRKNestableFacet",
  "sourceName": "contracts/impl/facets/RMRKNestableFacet.sol",
  "abi": [
    {
      "inputs": [],
      "name": "ERC721AddressZeroIsNotaValidOwner",
      "type": "error"
    },
    {
      "inputs": [],
      "name": "RMRKChildAlreadyExists",
      "type": "error"
    },
    {
      "inputs": [],
      "name": "RMRKChildIndexOutOfRange",
      "type": "error"
    },
    {
      "inputs": [],
      "name": "RMRKIsNotContract",
      "type": "error"
    },
    {
      "inputs": [],
      "name": "RMRKMaxPendingChildrenReached",
      "type": "error"
    },
    {
      "inputs": [],
      "name": "RMRKPendingChildIndexOutOfRange",
      "type": "error"
    },
    {
      "inputs": [],
      "name": "RMRKUnexpectedChildId",
      "type": "error"
    },
    {
      "inputs": [],
      "name": "RMRKUnexpectedNumberOfChildren",
      "type": "error"
    },
    {
      "inputs": [
        {
          "internalType": "uint256",
          "name": "parentId",
          "type": "uint256"
        },
        {
          "internalType": "uint256",
          "name": "childIndex",
          "type": "uint256"
        },
        {
          "internalType": "address",
          "name": "childAddress",
          "type": "address"
        },
        {
          "internalType": "uint256",
          "name": "childId",
          "type": "uint256"
        }
      ],
      "name": "acceptChild",
      "outputs": [],
      "stateMutability": "nonpayable",
      "type": "function"
    },
    {
      "inputs": [
        {
          "internalType": "uint256",
          "name": "parentId",
          "type": "uint256"
        },
        {
          "internalType": "uint256",
          "name": "childId",
          "type": "uint256"
        },
        {
          "internalType": "bytes",
          "name": "data",
          "type": "bytes"
        }
      ],
      "name": "addChild",
      "outputs": [],
      "stateMutability": "nonpayable",
      "type": "function"
    },
    {
      "inputs": [
        {
          "internalType": "address",
          "name": "owner",
          "type": "address"
        }
      ],
      "name": "balanceOf",
      "outputs": [
        {
          "internalType": "uint256",
          "name": "",
          "type": "uint256"
        }
      ],
      "stateMutability": "view",
      "type": "function"
    },
    {
      "inputs": [
        {
          "internalType": "address",
          "name": "childAddress",
          "type": "address"
        },
        {
          "internalType": "uint256",
          "name": "childId",
          "type": "uint256"
        }
      ],
      "name": "childIsInActive",
      "outputs": [
        {
          "internalType": "bool",
          "name": "",
          "type": "bool"
        }
      ],
      "stateMutability": "view",
      "type": "function"
    },
    {
      "inputs": [
        {
          "internalType": "uint256",
          "name": "parentId",
          "type": "uint256"
        },
        {
          "internalType": "uint256",
          "name": "index",
          "type": "uint256"
        }
      ],
      "name": "childOf",
      "outputs": [
        {
          "components": [
            {
              "internalType": "uint256",
              "name": "tokenId",
              "type": "uint256"
            },
            {
              "internalType": "address",
              "name": "contractAddress",
              "type": "address"
            }
          ],
          "internalType": "struct Child",
          "name": "",
          "type": "tuple"
        }
      ],
      "stateMutability": "view",
      "type": "function"
    },
    {
      "inputs": [
        {
          "internalType": "uint256",
          "name": "parentId",
          "type": "uint256"
        }
      ],
      "name": "childrenOf",
      "outputs": [
        {
          "components": [
            {
              "internalType": "uint256",
              "name": "tokenId",
              "type": "uint256"
            },
            {
              "internalType": "address",
              "name": "contractAddress",
              "type": "address"
            }
          ],
          "internalType": "struct Child[]",
          "name": "",
          "type": "tuple[]"
        }
      ],
      "stateMutability": "view",
      "type": "function"
    },
    {
      "inputs": [
        {
          "internalType": "address",
          "name": "owner",
          "type": "address"
        },
        {
          "internalType": "uint256",
          "name": "index",
          "type": "uint256"
        }
      ],
      "name": "getOwnerCollectionByIndex",
      "outputs": [
        {
          "internalType": "uint256",
          "name": "tokenId",
          "type": "uint256"
        },
        {
          "internalType": "string",
          "name": "tokenUri",
          "type": "string"
        }
      ],
      "stateMutability": "view",
      "type": "function"
    },
    {
      "inputs": [
        {
          "internalType": "uint256",
          "name": "tokenId",
          "type": "uint256"
        }
      ],
      "name": "ownerOf",
      "outputs": [
        {
          "internalType": "address",
          "name": "",
          "type": "address"
        }
      ],
      "stateMutability": "view",
      "type": "function"
    },
    {
      "inputs": [
        {
          "internalType": "uint256",
          "name": "parentId",
          "type": "uint256"
        },
        {
          "internalType": "uint256",
          "name": "index",
          "type": "uint256"
        }
      ],
      "name": "pendingChildOf",
      "outputs": [
        {
          "components": [
            {
              "internalType": "uint256",
              "name": "tokenId",
              "type": "uint256"
            },
            {
              "internalType": "address",
              "name": "contractAddress",
              "type": "address"
            }
          ],
          "internalType": "struct Child",
          "name": "",
          "type": "tuple"
        }
      ],
      "stateMutability": "view",
      "type": "function"
    },
    {
      "inputs": [
        {
          "internalType": "uint256",
          "name": "parentId",
          "type": "uint256"
        }
      ],
      "name": "pendingChildrenOf",
      "outputs": [
        {
          "components": [
            {
              "internalType": "uint256",
              "name": "tokenId",
              "type": "uint256"
            },
            {
              "internalType": "address",
              "name": "contractAddress",
              "type": "address"
            }
          ],
          "internalType": "struct Child[]",
          "name": "",
          "type": "tuple[]"
        }
      ],
      "stateMutability": "view",
      "type": "function"
    },
    {
      "inputs": [
        {
          "internalType": "uint256",
          "name": "tokenId",
          "type": "uint256"
        },
        {
          "internalType": "uint256",
          "name": "maxRejections",
          "type": "uint256"
        }
      ],
      "name": "rejectAllChildren",
      "outputs": [],
      "stateMutability": "nonpayable",
      "type": "function"
    },
    {
      "inputs": [
        {
          "internalType": "uint256",
          "name": "tokenId",
          "type": "uint256"
        },
        {
          "internalType": "address",
          "name": "to",
          "type": "address"
        },
        {
          "internalType": "uint256",
          "name": "destinationId",
          "type": "uint256"
        },
        {
          "internalType": "uint256",
          "name": "childIndex",
          "type": "uint256"
        },
        {
          "internalType": "address",
          "name": "childAddress",
          "type": "address"
        },
        {
          "internalType": "uint256",
          "name": "childId",
          "type": "uint256"
        },
        {
          "internalType": "bool",
          "name": "isPending",
          "type": "bool"
        },
        {
          "internalType": "bytes",
          "name": "data",
          "type": "bytes"
        }
      ],
      "name": "transferChild",
      "outputs": [],
      "stateMutability": "nonpayable",
      "type": "function"
    }
  ],
  "bytecode": "0x608060405234801561001057600080fd5b5061266d806100206000396000f3fe608060405234801561001057600080fd5b50600436106100b45760003560e01c80636f19951c116100715780636f19951c146101c657806370a08231146101f65780639796133614610226578063a898e36414610242578063defa80c314610272578063e97ceaa81461028e576100b4565b80632f32f937146100b95780634182e4a3146100e957806344ec934414610119578063504ac573146101495780636352211e1461017a578063635490cc146101aa575b600080fd5b6100d360048036038101906100ce9190611b6c565b6102aa565b6040516100e09190611c2b565b60405180910390f35b61010360048036038101906100fe9190611c72565b6103a2565b6040516101109190611ccd565b60405180910390f35b610133600480360381019061012e9190611ce8565b610403565b6040516101409190611df3565b60405180910390f35b610163600480360381019061015e9190611c72565b6104dd565b604051610171929190611eb4565b60405180910390f35b610194600480360381019061018f9190611ce8565b6105de565b6040516101a19190611ef3565b60405180910390f35b6101c460048036038101906101bf9190612043565b6105f0565b005b6101e060048036038101906101db9190611ce8565b6107da565b6040516101ed9190611df3565b60405180910390f35b610210600480360381019061020b91906120b2565b6108b4565b60405161021d91906120df565b60405180910390f35b610240600480360381019061023b9190611b6c565b610965565b005b61025c60048036038101906102579190611b6c565b610b32565b6040516102699190611c2b565b60405180910390f35b61028c60048036038101906102879190612126565b610c2a565b005b6102a860048036038101906102a391906121f8565b610e03565b005b6102b2611a88565b816102bc846107da565b51116102f4576040517fca7cc84a00000000000000000000000000000000000000000000000000000000815260040160405180910390fd5b600080600d016000858152602001908152602001600020838154811061031d5761031c61225f565b5b9060005260206000209060020201604051806040016040529081600082015481526020016001820160009054906101000a900473ffffffffffffffffffffffffffffffffffffffff1673ffffffffffffffffffffffffffffffffffffffff1673ffffffffffffffffffffffffffffffffffffffff168152505090508091505092915050565b6000806000600f0160008573ffffffffffffffffffffffffffffffffffffffff1673ffffffffffffffffffffffffffffffffffffffff1681526020019081526020016000206000848152602001908152602001600020541415905092915050565b6060600080600e016000848152602001908152602001600020805480602002602001604051908101604052809291908181526020016000905b828210156104ce5783829060005260206000209060020201604051806040016040529081600082015481526020016001820160009054906101000a900473ffffffffffffffffffffffffffffffffffffffff1673ffffffffffffffffffffffffffffffffffffffff1673ffffffffffffffffffffffffffffffffffffffff16815250508152602001906001019061043c565b50505050905080915050919050565b60006060600073ffffffffffffffffffffffffffffffffffffffff168473ffffffffffffffffffffffffffffffffffffffff160361051a57600080fd5b600060100160008573ffffffffffffffffffffffffffffffffffffffff1673ffffffffffffffffffffffffffffffffffffffff16815260200190815260200160002080549050831061056b57600080fd5b600060100160008573ffffffffffffffffffffffffffffffffffffffff1673ffffffffffffffffffffffffffffffffffffffff16815260200190815260200160002083815481106105bf576105be61225f565b5b906000526020600020015491506105d582610fd4565b90509250929050565b60006105e982611017565b9050919050565b6105f983611062565b60006106036110ad565b90506106248173ffffffffffffffffffffffffffffffffffffffff166110b5565b61065a576040517fb9d3114700000000000000000000000000000000000000000000000000000000815260040160405180910390fd5b600060405180604001604052808581526020018373ffffffffffffffffffffffffffffffffffffffff168152509050610695858386866110d8565b60006106a086610403565b5190506080811015610744576000600e0160008781526020019081526020016000208290806001815401808255809150506001900390600052602060002090600202016000909190919091506000820151816000015560208201518160010160006101000a81548173ffffffffffffffffffffffffffffffffffffffff021916908373ffffffffffffffffffffffffffffffffffffffff1602179055505050610776565b6040517fa53c8c0500000000000000000000000000000000000000000000000000000000815260040160405180910390fd5b848373ffffffffffffffffffffffffffffffffffffffff16877fe65085e689b77b126ba0bac3b079aa8288f19f4d5445af11c76003f8ab3075dd846040516107be91906120df565b60405180910390a46107d2868487876110de565b505050505050565b6060600080600d016000848152602001908152602001600020805480602002602001604051908101604052809291908181526020016000905b828210156108a55783829060005260206000209060020201604051806040016040529081600082015481526020016001820160009054906101000a900473ffffffffffffffffffffffffffffffffffffffff1673ffffffffffffffffffffffffffffffffffffffff1673ffffffffffffffffffffffffffffffffffffffff168152505081526020019060010190610813565b50505050905080915050919050565b60008073ffffffffffffffffffffffffffffffffffffffff168273ffffffffffffffffffffffffffffffffffffffff160361091b576040517f7772286600000000000000000000000000000000000000000000000000000000815260040160405180910390fd5b600060090160008373ffffffffffffffffffffffffffffffffffffffff1673ffffffffffffffffffffffffffffffffffffffff168152602001908152602001600020549050919050565b81600080600c01600083815260200190815260200160002060009054906101000a900473ffffffffffffffffffffffffffffffffffffffff16905060006109aa6110ad565b90508073ffffffffffffffffffffffffffffffffffffffff168273ffffffffffffffffffffffffffffffffffffffff161480610a6f57506000600b0160008373ffffffffffffffffffffffffffffffffffffffff1673ffffffffffffffffffffffffffffffffffffffff16815260200190815260200160002060008273ffffffffffffffffffffffffffffffffffffffff1673ffffffffffffffffffffffffffffffffffffffff16815260200190815260200160002060009054906101000a900460ff165b80610b1857508073ffffffffffffffffffffffffffffffffffffffff166000600a01600085815260200190815260200160002060008473ffffffffffffffffffffffffffffffffffffffff1673ffffffffffffffffffffffffffffffffffffffff16815260200190815260200160002060009054906101000a900473ffffffffffffffffffffffffffffffffffffffff1673ffffffffffffffffffffffffffffffffffffffff16145b610b2157600080fd5b610b2b85856110e4565b5050505050565b610b3a611a88565b81610b4484610403565b5111610b7c576040517fda22687f00000000000000000000000000000000000000000000000000000000815260040160405180910390fd5b600080600e0160008581526020019081526020016000208381548110610ba557610ba461225f565b5b9060005260206000209060020201604051806040016040529081600082015481526020016001820160009054906101000a900473ffffffffffffffffffffffffffffffffffffffff1673ffffffffffffffffffffffffffffffffffffffff1673ffffffffffffffffffffffffffffffffffffffff168152505090508091505092915050565b87600080600c01600083815260200190815260200160002060009054906101000a900473ffffffffffffffffffffffffffffffffffffffff1690506000610c6f6110ad565b90508073ffffffffffffffffffffffffffffffffffffffff168273ffffffffffffffffffffffffffffffffffffffff161480610d3457506000600b0160008373ffffffffffffffffffffffffffffffffffffffff1673ffffffffffffffffffffffffffffffffffffffff16815260200190815260200160002060008273ffffffffffffffffffffffffffffffffffffffff1673ffffffffffffffffffffffffffffffffffffffff16815260200190815260200160002060009054906101000a900460ff165b80610ddd57508073ffffffffffffffffffffffffffffffffffffffff166000600a01600085815260200190815260200160002060008473ffffffffffffffffffffffffffffffffffffffff1673ffffffffffffffffffffffffffffffffffffffff16815260200190815260200160002060009054906101000a900473ffffffffffffffffffffffffffffffffffffffff1673ffffffffffffffffffffffffffffffffffffffff16145b610de657600080fd5b610df68b8b8b8b8b8b8b8b61118a565b5050505050505050505050565b83600080600c01600083815260200190815260200160002060009054906101000a900473ffffffffffffffffffffffffffffffffffffffff1690506000610e486110ad565b90508073ffffffffffffffffffffffffffffffffffffffff168273ffffffffffffffffffffffffffffffffffffffff161480610f0d57506000600b0160008373ffffffffffffffffffffffffffffffffffffffff1673ffffffffffffffffffffffffffffffffffffffff16815260200190815260200160002060008273ffffffffffffffffffffffffffffffffffffffff1673ffffffffffffffffffffffffffffffffffffffff16815260200190815260200160002060009054906101000a900460ff165b80610fb657508073ffffffffffffffffffffffffffffffffffffffff166000600a01600085815260200190815260200160002060008473ffffffffffffffffffffffffffffffffffffffff1673ffffffffffffffffffffffffffffffffffffffff16815260200190815260200160002060009054906101000a900473ffffffffffffffffffffffffffffffffffffffff1673ffffffffffffffffffffffffffffffffffffffff16145b610fbf57600080fd5b610fcb8787878761140a565b50505050505050565b60606000610fe0611629565b905080600301610fef8461162e565b6040516020016110009291906123c2565b604051602081830303815290604052915050919050565b600080611022611629565b905080600c01600084815260200190815260200160002060009054906101000a900473ffffffffffffffffffffffffffffffffffffffff16915050919050565b61106b816116fc565b6110aa576040517f08c379a00000000000000000000000000000000000000000000000000000000081526004016110a190612432565b60405180910390fd5b50565b600033905090565b6000808273ffffffffffffffffffffffffffffffffffffffff163b119050919050565b50505050565b50505050565b806000600e016000848152602001908152602001600020805490501115611137576040517f3ce62f1600000000000000000000000000000000000000000000000000000000815260040160405180910390fd5b6000600e01600083815260200190815260200160002060006111599190611ab8565b817f8ac4a0d65950c3e40448afb2260e2e0ec36ea15644d9b39e37e85472e5f9445160405160405180910390a25050565b611192611a88565b82156111a9576111a28987610b32565b90506111b6565b6111b389876102aa565b90505b6111c1818686611777565b6111cf8987878787876117f6565b82156111f9576111f46000600e0160008b8152602001908152602001600020876117fe565b611270565b6000600f0160008673ffffffffffffffffffffffffffffffffffffffff1673ffffffffffffffffffffffffffffffffffffffff16815260200190815260200160002060008581526020019081526020016000206000905561126f6000600d0160008b8152602001908152602001600020876117fe565b5b600073ffffffffffffffffffffffffffffffffffffffff168873ffffffffffffffffffffffffffffffffffffffff161461139f5760008703611322578473ffffffffffffffffffffffffffffffffffffffff1663b88d4fde308a87866040518563ffffffff1660e01b81526004016112eb94939291906124a7565b600060405180830381600087803b15801561130557600080fd5b505af1158015611319573d6000803e3d6000fd5b5050505061139e565b806020015173ffffffffffffffffffffffffffffffffffffffff1663064c0a3a308a84600001518b876040518663ffffffff1660e01b815260040161136b9594939291906124f3565b600060405180830381600087803b15801561138557600080fd5b505af1158015611399573d6000803e3d6000fd5b505050505b5b838573ffffffffffffffffffffffffffffffffffffffff168a7f2bedee38cdb22411c14554191243c0e117c0088ddae3459876acd46a0fd5381589876040516113e992919061254d565b60405180910390a46113ff898787878787611921565b505050505050505050565b60006114168585610b32565b9050611423818484611777565b600080600f0160008573ffffffffffffffffffffffffffffffffffffffff1673ffffffffffffffffffffffffffffffffffffffff168152602001908152602001600020600084815260200190815260200160002054146114af576040517f188a497300000000000000000000000000000000000000000000000000000000815260040160405180910390fd5b6114bb85858585611929565b6114da6000600e016000878152602001908152602001600020856117fe565b6000600d0160008681526020019081526020016000208190806001815401808255809150506001900390600052602060002090600202016000909190919091506000820151816000015560208201518160010160006101000a81548173ffffffffffffffffffffffffffffffffffffffff021916908373ffffffffffffffffffffffffffffffffffffffff160217905550505060016000600f0160008573ffffffffffffffffffffffffffffffffffffffff1673ffffffffffffffffffffffffffffffffffffffff168152602001908152602001600020600084815260200190815260200160002081905550818373ffffffffffffffffffffffffffffffffffffffff16867f29486b9e2ae569b440933a9b1b421467306fa21f3dcad439c262910a634963a98760405161160e91906120df565b60405180910390a46116228585858561192f565b5050505050565b600090565b60606000600161163d84611935565b01905060008167ffffffffffffffff81111561165c5761165b611f18565b5b6040519080825280601f01601f19166020018201604052801561168e5781602001600182028036833780820191505090505b509050600082602001820190505b6001156116f1578080600190039150507f3031323334353637383961626364656600000000000000000000000000000000600a86061a8153600a85816116e5576116e4612576565b5b0494506000850361169c575b819350505050919050565b600080611707611629565b9050600073ffffffffffffffffffffffffffffffffffffffff1681600c01600085815260200190815260200160002060009054906101000a900473ffffffffffffffffffffffffffffffffffffffff1673ffffffffffffffffffffffffffffffffffffffff161415915050919050565b826020015173ffffffffffffffffffffffffffffffffffffffff168273ffffffffffffffffffffffffffffffffffffffff161415806117ba575082600001518114155b156117f1576040517fe707e58200000000000000000000000000000000000000000000000000000000815260040160405180910390fd5b505050565b505050505050565b816001838054905061181091906125d4565b815481106118215761182061225f565b5b90600052602060002090600202018282815481106118425761184161225f565b5b9060005260206000209060020201600082015481600001556001820160009054906101000a900473ffffffffffffffffffffffffffffffffffffffff168160010160006101000a81548173ffffffffffffffffffffffffffffffffffffffff021916908373ffffffffffffffffffffffffffffffffffffffff160217905550905050818054806118d5576118d4612608565b5b60019003818190600052602060002090600202016000808201600090556001820160006101000a81549073ffffffffffffffffffffffffffffffffffffffff0219169055505090555050565b505050505050565b50505050565b50505050565b600080600090507a184f03e93ff9f4daa797ed6e38ed64bf6a1f0100000000000000008310611993577a184f03e93ff9f4daa797ed6e38ed64bf6a1f010000000000000000838161198957611988612576565b5b0492506040810190505b6d04ee2d6d415b85acef810000000083106119d0576d04ee2d6d415b85acef810000000083816119c6576119c5612576565b5b0492506020810190505b662386f26fc1000083106119ff57662386f26fc1000083816119f5576119f4612576565b5b0492506010810190505b6305f5e1008310611a28576305f5e1008381611a1e57611a1d612576565b5b0492506008810190505b6127108310611a4d576127108381611a4357611a42612576565b5b0492506004810190505b60648310611a705760648381611a6657611a65612576565b5b0492506002810190505b600a8310611a7f576001810190505b80915050919050565b604051806040016040528060008152602001600073ffffffffffffffffffffffffffffffffffffffff1681525090565b5080546000825560020290600052602060002090810190611ad99190611adc565b50565b5b80821115611b1e576000808201600090556001820160006101000a81549073ffffffffffffffffffffffffffffffffffffffff021916905550600201611add565b5090565b6000604051905090565b600080fd5b600080fd5b6000819050919050565b611b4981611b36565b8114611b5457600080fd5b50565b600081359050611b6681611b40565b92915050565b60008060408385031215611b8357611b82611b2c565b5b6000611b9185828601611b57565b9250506020611ba285828601611b57565b9150509250929050565b611bb581611b36565b82525050565b600073ffffffffffffffffffffffffffffffffffffffff82169050919050565b6000611be682611bbb565b9050919050565b611bf681611bdb565b82525050565b604082016000820151611c126000850182611bac565b506020820151611c256020850182611bed565b50505050565b6000604082019050611c406000830184611bfc565b92915050565b611c4f81611bdb565b8114611c5a57600080fd5b50565b600081359050611c6c81611c46565b92915050565b60008060408385031215611c8957611c88611b2c565b5b6000611c9785828601611c5d565b9250506020611ca885828601611b57565b9150509250929050565b60008115159050919050565b611cc781611cb2565b82525050565b6000602082019050611ce26000830184611cbe565b92915050565b600060208284031215611cfe57611cfd611b2c565b5b6000611d0c84828501611b57565b91505092915050565b600081519050919050565b600082825260208201905092915050565b6000819050602082019050919050565b604082016000820151611d576000850182611bac565b506020820151611d6a6020850182611bed565b50505050565b6000611d7c8383611d41565b60408301905092915050565b6000602082019050919050565b6000611da082611d15565b611daa8185611d20565b9350611db583611d31565b8060005b83811015611de6578151611dcd8882611d70565b9750611dd883611d88565b925050600181019050611db9565b5085935050505092915050565b60006020820190508181036000830152611e0d8184611d95565b905092915050565b611e1e81611b36565b82525050565b600081519050919050565b600082825260208201905092915050565b60005b83811015611e5e578082015181840152602081019050611e43565b60008484015250505050565b6000601f19601f8301169050919050565b6000611e8682611e24565b611e908185611e2f565b9350611ea0818560208601611e40565b611ea981611e6a565b840191505092915050565b6000604082019050611ec96000830185611e15565b8181036020830152611edb8184611e7b565b90509392505050565b611eed81611bdb565b82525050565b6000602082019050611f086000830184611ee4565b92915050565b600080fd5b600080fd5b7f4e487b7100000000000000000000000000000000000000000000000000000000600052604160045260246000fd5b611f5082611e6a565b810181811067ffffffffffffffff82111715611f6f57611f6e611f18565b5b80604052505050565b6000611f82611b22565b9050611f8e8282611f47565b919050565b600067ffffffffffffffff821115611fae57611fad611f18565b5b611fb782611e6a565b9050602081019050919050565b82818337600083830152505050565b6000611fe6611fe184611f93565b611f78565b90508281526020810184848401111561200257612001611f13565b5b61200d848285611fc4565b509392505050565b600082601f83011261202a57612029611f0e565b5b813561203a848260208601611fd3565b91505092915050565b60008060006060848603121561205c5761205b611b2c565b5b600061206a86828701611b57565b935050602061207b86828701611b57565b925050604084013567ffffffffffffffff81111561209c5761209b611b31565b5b6120a886828701612015565b9150509250925092565b6000602082840312156120c8576120c7611b2c565b5b60006120d684828501611c5d565b91505092915050565b60006020820190506120f46000830184611e15565b92915050565b61210381611cb2565b811461210e57600080fd5b50565b600081359050612120816120fa565b92915050565b600080600080600080600080610100898b03121561214757612146611b2c565b5b60006121558b828c01611b57565b98505060206121668b828c01611c5d565b97505060406121778b828c01611b57565b96505060606121888b828c01611b57565b95505060806121998b828c01611c5d565b94505060a06121aa8b828c01611b57565b93505060c06121bb8b828c01612111565b92505060e089013567ffffffffffffffff8111156121dc576121db611b31565b5b6121e88b828c01612015565b9150509295985092959890939650565b6000806000806080858703121561221257612211611b2c565b5b600061222087828801611b57565b945050602061223187828801611b57565b935050604061224287828801611c5d565b925050606061225387828801611b57565b91505092959194509250565b7f4e487b7100000000000000000000000000000000000000000000000000000000600052603260045260246000fd5b7f4e487b7100000000000000000000000000000000000000000000000000000000600052602260045260246000fd5b600060028204905060018216806122d557607f821691505b6020821081036122e8576122e761228e565b5b50919050565b600081905092915050565b60008190508160005260206000209050919050565b6000815461231b816122bd565b61232581866122ee565b94506001821660008114612340576001811461235557612388565b60ff1983168652811515820286019350612388565b61235e856122f9565b60005b8381101561238057815481890152600182019150602081019050612361565b838801955050505b50505092915050565b600061239c82611e24565b6123a681856122ee565b93506123b6818560208601611e40565b80840191505092915050565b60006123ce828561230e565b91506123da8284612391565b91508190509392505050565b7f696e76616c696420746f6b656e20696421000000000000000000000000000000600082015250565b600061241c601183611e2f565b9150612427826123e6565b602082019050919050565b6000602082019050818103600083015261244b8161240f565b9050919050565b600081519050919050565b600082825260208201905092915050565b600061247982612452565b612483818561245d565b9350612493818560208601611e40565b61249c81611e6a565b840191505092915050565b60006080820190506124bc6000830187611ee4565b6124c96020830186611ee4565b6124d66040830185611e15565b81810360608301526124e8818461246e565b905095945050505050565b600060a0820190506125086000830188611ee4565b6125156020830187611ee4565b6125226040830186611e15565b61252f6060830185611e15565b8181036080830152612541818461246e565b90509695505050505050565b60006040820190506125626000830185611e15565b61256f6020830184611cbe565b9392505050565b7f4e487b7100000000000000000000000000000000000000000000000000000000600052601260045260246000fd5b7f4e487b7100000000000000000000000000000000000000000000000000000000600052601160045260246000fd5b60006125df82611b36565b91506125ea83611b36565b9250828203905081811115612602576126016125a5565b5b92915050565b7f4e487b7100000000000000000000000000000000000000000000000000000000600052603160045260246000fdfea26469706673582212204dda134fe47e7970e0f7b683fa3b21078e62acc61b024768b601a797fde346b364736f6c63430008100033",
  "linkReferences": {},
  "deployedLinkReferences": {}
}